:020000040000FA
:10200000B6EF3EF0003000310000FFFFFFFFFFFFA2
:10201000FFFFFFFFFFFFFFFFFFFFFFFFFFFFFFFFD0
:10202000FFFFFFFFFFFFFFFFFFFFFFFFFFFFFFFFC0
:10203000FFFFFFFFFFFFFFFFFFFFFFFFFFFFFFFFB0
:107D0000FFFFFFFFFFFFFFFFFFFFFFFFFFFFFFFF83
:107D1000FFFFFFFFFFFFFFFFFFFFD1EC3EF0120070
:107D200001C009F002C00AF0120001C00DF002C04B
:107D30000EF0120001C00BF002C00CF01200026E37
:107D40000250ABEC3EF012001FEC3FF0C1EC3EF0F5
:107D500000EC3FF01200016E9EA8B1EF3EF0B3EFD1
:107D60003EF0ACEF3EF001C0ADFF120000EE09F0B6
:107D7000070EEE6AE806FDE1000EF86E00013FEF27
:107D80003FF0700ED36E000ED26E800E9B6E000E12
:107D9000B56ED2AECEEF3EF0D0EF3EF0C9EF3EF082
:107DA00012009EAAD6EF3EF0D8EF3EF0D1EF3EF0A3
:107DB000000E0F6EABA2DFEF3EF0E1EF3EF0E3EF1F
:107DC0003EF0AB98AB88AE501200050E056E000E6B
:107DD000066EEEEF3EF007509FEC3EF003C0F6FF5C
:107DE00004C0F7FF034A042A0800F5CF07F0075044
:107DF000D8A4FDEF3EF0FFEF3EF0EBEF3EF01200B7
:107E0000080EB86E900EAB6E240EAC6EE10EAF6E27
:107E1000040EB06E000E016E000E026E95EC3EF088
:107E2000000E016E000E026E9AEC3EF0000E016E26
:107E3000000E026E90EC3EF0000E0F6E1200000E6F
:107E40008D6E000E8C6E000E896E000E8A6E000E16
:107E50008B6E070E966EFD0E926E9368870E946E73
:107E600095680F015E69040E5D6F3F0E5C6F070E33
:107E70005F6F290E5B6F000E856EF18E1200A4EC11
:107E80003EF08DEC3EF0086E300E0818D8A44BEF93
:107E90003FF04DEF3FF050EF3FF0899241EF3FF060
:107EA000310E0818D8A457EF3FF059EF3FF05CEFC0
:107EB0003FF0898241EF3FF03F0E0818D8A463EFEE
:107EC0003FF065EF3FF07CEF3FF080A46AEF3FF0BA
:107ED0006CEF3FF074EF3FF0070E036E200E046E60
:107EE000E5EC3EF041EF3FF0050E036E200E046E10
:107EF000E5EC3EF041EF3FF041EF3FF000EF10F0D6
:020000040030CA
:0400000003285F3C36
:0200060081FF78
:020000040020DA
:0800000007040D0300000000DD
:00000001FF
